S01800006275696C642F6D696361322F6D61696E2E737265632D
S11300000C9449000C9468000C9468000C946800EB
S11300100C9468000C9468000C9468000C946800BC
S11300200C9468000C9468000C9468000C946800AC
S11300300C9468000C9468000C9468000C9468009C
S11300400C9468000C9470000C9468000C94680084
S11300500C9468000C9468000C9468000C9468007C
S11300600C9468000C9468000C9468000C9468006C
S11300700C9468000C9468000C9468000C9468005C
S11300800C9468000C9468000C94680000081C1818
S1130090141011241FBECFEFD0E1DEBFCDBF11E09D
S11300A0A0E0B1E0E2E8F3E000E00BBF02C007909B
S11300B00D92A030B107D9F711E0A0E0B1E001C082
S11300C01D92A530B107E1F70E9480000C94C00195
S11300D00C9400008FB7F894992708958FBF089562
S11300E01F920F920FB60F9211248F938FB18091AC
S11300F000018FB98F910F900FBE0F901F9018952C
S1130100CFEFD0E1DEBFCDBF5FB7F8948FEF809320
S113011003018093040181E08EBD88E080BF83E009
S113012083BF8CB59DB54AE72CB53DB52817390773
S113013008F44150442311F0C901F6CF92B782B7B5
S11301408917E9F32CB53DB592B782B78917E9F35E
S11301508CB59DB5821B930B409625E096958795AB
S11301602A95E1F7909302018093010113BE83B7AE
S11301708EBD8EB580BF12BE1DBC1CBC8FEF86BF6A
S113018086B780937C0080B7992787709070892BFD
S1130190D1F7D29AD19AD09ADA9AD99AD89A15BA2A
S11301A08FEF84BBD498DC98D6988C9A8E9A8F9AC9
S11301B0949A979A969A949880E097989698969A93
S11301C08F5F8730D1F7979A9698969A949A9FE37F
S11301D080E097FF02C0979A01C097989698969AE4
S11301E08F5F883011F0990FF4CF949A979A969A6A
S11301F0949896E180E097FF02C0979A01C097987F
S11302009698969A8F5F873011F0990FF4CF979A4A
S11302109698969A949A80E097989698969A8F5F73
S11302208830D1F7949A979A969AB998BF98BB98C0
S1130230BA9880E285BF2FEF809103018F3FC1F010
S113024090910301E0910301FF27EC5FFE4F808151
S113025080930301809103018F3F11F48093040183
S1130260892F9927FC01EC5FFE4F20838F3F21F7F4
S1130270809103018F3FC9F090910301E091030144
S1130280FF27EC5FFE4F808180930301809103017F
S11302908F3F11F480930401892F9927FC01EC5FAF
S11302A0FE4F2FEF20838F3F19F7852F99278FBF9C
S11302B07894000080E090E0A0E0B0E0ABBFF92FBC
S11302C0E82FD895802D0000882341F08FB7F8944B
S11302D099272BB334E023272BBB8FBF8FB7F89418
S11302E0482F55272DC087B7887BC1F480917D00A6
S11302F08B7FA1F46E9912C08AB190919A00892BD8
S1130300807C61F48091740082FD08C0379B03C037
S1130310E1E0F0E005C0E5E0F0E002C0E0E0F0E09C
S113032085B7E63008F0E5E0FF27E457FF4FC895AE
S1130330E02D837E8062E82BE5BF78948895F8945D
S1130340809103018F3F79F290910301E0910301C1
S1130350FF27EC5FFE4F80818093030180910301AE
S11303608F3F11F480930401892F9927FC01EC5FDE
S1130370FE4F2FEF20838F3F09F4B5CF4FBFAECF91
S1050380FFCFA9
S9030000FC
